:020000040800F2
:10000000880B0020A1010008872B0008E5270008C5
:10001000852B0008DF1200087D3200080000000078
:10002000000000000000000000000000D92E0008C1
:100030002514000800000000892B0008DB2E0008B2
:10004000BB010008BB010008BB010008BB010008A0
:10005000BB010008BB010008BB010008BB01000890
:10006000BB010008BB010008BB010008BB01000880
:10007000BB010008BB010008BB010008BB01000870
:10008000BB010008BB010008BB010008BB01000860
:10009000BB010008BB010008BB010008BB01000850
:1000A000BB010008BB010008BB010008BB01000840
:1000B000BB010008BB010008BB010008BB01000830
:1000C000BB010008BB010008BB010008BB01000820
:1000D000BB01000871320008BB010008BB01000829
:1000E000BB010008BB010008BB01000800F002F8DA
:1000F00000F047F80AA090E8000C82448344AAF17B
:100100000107DA4501D100F03CF8AFF2090EBAE878
:100110000F0013F0010F18BFFB1A43F0010318473B
:1001200084470000A4470000103A24BF78C878C173
:10013000FAD8520724BF30C830C144BF04680C60ED
:10014000704700000023002400250026103A28BF35
:1001500078C1FBD8520728BF30C148BF0B60704739
:10016000662903F08885002070471FB500F07AFBF0
:1001700004000020002103F015FAE0601FBD10B557
:1001800010BD00F06FFC1146FFF7EFFF03F088F998
:1001900000F08DFC03B4FFF7F2FF03BC00F0D0FCCD
:1001A0000948804709480047FEE7FEE7FEE7FEE70B
:1001B000FEE7FEE7FEE7FEE7FEE7FEE70448054947
:1001C000054A064B704700003D2F0008ED0000086F
:1001D00088050020880B0020880700208807002061
:1001E0000FB41CB5084B06AA7B44694600900598DD
:1001F00000F0F5FA04460020694600F003FB2046B3
:100200001CBC5DF814FB0000190600000FB47CB59F
:100210000C0009AA009001D02044401E084B7B44EA
:1002200069460190089800F0DAFA05461CB10020F2
:10023000694600F0E7FA28467CBC5DF814FB000034
:10024000ED0500002DE9F0474FF0000A894604460D
:10025000C0F820A02046E1688847002876D02528ED
:1002600006D0D4E901219047206A401C2062F1E7C2
:10027000E168204600258847C4F81CA006460027F0
:10028000C4F818A02A2E09D0304603F01CF838B361
:1002900004EB8708303EC8F8186019E059F8041BD1
:1002A000204604EB87029161E1688847012F0646EA
:1002B00018D1E069002820DA25F020051DE0D8F8E3
:1002C000180000EB800006EB40003038C8F818003A
:1002D0002046E1688847064602F0F5FF0028EED187
:1002E000012F0AD02E2E08D12046E16888477F1CB6
:1002F0000646022F45F02005C4DBA069002803DA7A
:10030000404245F00105A061E80701D025F0100545
:10031000B6B1A6F14100192802D8203645F400658F
:100320004A463146204625604D46FFF719FF58B131
:10033000012806D0ED1D25F0070000F1080989E726
:1003400004E005F1040985E730468AE7206ABDE844
:10035000F08702F0FF0343EA032242EA024200F080
:1003600060BA4FF0000200B5134694469646203915
:1003700022BFA0E80C50A0E80C50B1F12001BFF45E
:10038000F7AF090728BFA0E80C5048BF0CC05DF8C4
:1003900004EB890028BF40F8042B08BF704748BF12
:1003A00020F8022B11F0804F18BF00F8012B704786
:1003B00070477047704770472DE9FF4F0C461E4647
:1003C0004FF0FF378BB0D2E90001DDF860800A9072
:1003D0008A46C1F30A5505B93D46002108464FF04B
:1003E0000000BAF1000F00F4400005DA00EB8000D5
:1003F0004FF4400101EA50004FEA9059B9F1010F62
:1004000000DDB9460A9850EA4A000ED044F6105072
:10041000A5F2FF3545432F14B8F1000F1ED07542E9
:10042000291E1EDDC9F100021CE0B8F1010F4FF0DA
:10043000000001D0302103E0F24305E02154401CCC
:10044000B042FBDB30460022002121540B99C1F859
:100450000880C1E900200FB0BDE8F08FBD1B6D1C06
:10046000DEE74A4600DA694206A800F085FA06ABE4
:1004700093E8070003AB83E8070050460A9900F0B1
:1004800066FB8DE80700A0F500501F380090039828
:10049000002D0ADD42F21F014A460844002303A949
:1004A0000390684600F0CFFD09E0A0F500504A46F1
:1004B0001F38002303A90390684600F0D9FD8DE89A
:1004C00007000004000C03D04FF0FF30410800E0AB
:1004D0001046B8F1000F03D00022009215461EE02E
:1004E000751E05D400F0C2F9303262556D1EF9D583
:1004F000B3460122084302D000227F1C04E020788A
:10050000302801D100227F1E002A099784D01DE0E7
:10051000112D07DA00F0AAF9303262556D1C50EA4D
:100520000102F5D1084302D00098C8B10EE00021C5
:10053000681E05E0235C625C63542254401E491C23
:100540008142F7DBAB46A81B401E0990002004F84F
:100550000B000B98099AC0F80880C0E9002B7AE7D5
:1005600011264FF0000857E72DE9F04F8846044662
:10057000D21D22F0070191B0D1E90001CDE90A01B5
:1005800002F07DFE02460B98C00F01D02D2007E03F
:100590002068810701D52B2002E0202101EAC0005C
:1005A000032A099001D0072A05DB0346414620466D
:1005B00000F0A2F90BE12078800601D5E06900E0A7
:1005C0000620B8F1650F814606D0B8F1660F18D045
:1005D000B8F1670F70D131E00020B9F1110F009030
:1005E00001DB112301E009F101030AAA01A90CA80A
:1005F000FFF7E2FEDDE90C70002609F101058346F4
:1006000047E001204B4600904FF000470AAA01A99D
:100610000CA8FFF7D1FEDDE90DB00C995D46002670
:1006200010B909F101000D18B9EB050003D4C0F1B0
:10063000FF3609F10105A5EB09002BE0B9F1010F27
:1006400001DA4FF001090020B9F1110F009048467E
:1006500001DD112300E003460AAA01A90CA8FFF757
:10066000ABFEDDE90C704D4600268346207800077E
:100670000AD4AB4500DA5D4601A8012D04DD41191D
:1006800011F8011C302907D04F4502DA17F1040F89
:1006900004DA012082460FE06D1EEEE7002F02DC37
:1006A000ED1B3E4403E0781CA84200DD7D1CB81B16
:1006B00000F1010A4FF000472078000703D4AA4553
:1006C00001DB4FF0FF3A0021B7F1004F0DF1430875
:1006D0008DF8431024D002202B23002F01DA7F4213
:1006E0002D230A21021EA0F1010000DC5FB197FB5F
:1006F000F1FC97FBF1F201FB1C7C17460CF1300C6E
:1007000008F801CDEEE7A8F1010003702188090582
:1007100001D5452100E06521A0F1010800F8011C88
:1007200009980FA9A1EB0807FF1D00B1012041198D
:1007300001EBEA70A1693844081A401EA0612078D4
:10074000C00602D42046AFF30080099828B1D4E94E
:1007500001219047206A401C20622078C00622D5E3
:100760002046AFF300801EE0002E04DBB34502DD1F
:1007700001A8805D00E03020D4E901219047206A83
:10078000401C2062761CAAF101005FEA000A0AD12F
:1007900000F068F8C0680168405CD4E90121904726
:1007A000206A401C2062281EA5F10105DCDC07E060
:1007B000D4E9012118F8010B9047206A401C2062FF
:1007C000381EA7F10107F3DC2046AFF300800320B9
:1007D00011B041E601694A1C02610878704700B512
:1007E0008FB0CDE901310021059105497944CDE96A
:1007F000031011466846FFF725FD0FB000BD00004D
:10080000E5FFFFFF0A6802F8010B0A607047D1E9B3
:1008100000239A4202D2531C0B60107070474FF0B5
:1008200000020429C0F0128010F0030C3FF49BADCD
:10083000CCF1040CBCF1020F18BF00F8012BA8BFCB
:1008400020F8022BA1EB0C01FFF78DBD5FEAC17C04
:1008500024BF00F8012B00F8012B48BF00F8012B42
:1008600070470000004870474405002030B5B0F1E3
:100870000A024FEA900E71F100034EEA817EB0EB5E
:100880000E0061EB91014FEA101E4EEA017E10EB63
:100890000E0041EB11114FEA102E4EEA016E10EBE3
:1008A0000E0041EB11214FEA104E4EEA014E10EBC3
:1008B0000E0041EB1141401841F100014FEAD00018
:1008C00040EA41704FEAD10110EB80054FEA810404
:1008D00044EA907444EB01046D1944EB0404521B88
:1008E000A3414FF0000348BF0A3200D530BD401C81
:1008F00041F1000130BD00002DE9F0411F460446E2
:1009000003260168072A01F4006004DB08B116A57C
:1009100005E016A503E008B115A500E015A521F036
:1009200010002060A069C01EA0610FB1401EA06130
:100930002046AFF300804FB1D4E9012138469047FB
:10094000206A401C2062C01C206206E0206AFAE790
:10095000D4E9012115F8010B9047761EF8D2204604
:10096000AFF30080BDE8F0814E414E006E616E0035
:10097000494E4600696E66002DE9F04781461646ED
:100980008AB0354878440DC88DE80D003248784467
:10099000801C03AC0DC884E80D0041F69B30084470
:1009A000372190FBF1F290FBF1F5A5F1800501FBF9
:1009B00012041B3C02D56442012000E00020DFF855
:1009C00098A080460027FA44AAF1BE0A0EE0E0078C
:1009D0000AD03246684607EB470101230AEB810142
:1009E00000F046FB8DE8070064107F1C002CEED160
:1009F000194F7F44AE3F19E0E80715D007EB04100C
:100A00000DF1180A90E80E008AE80E00C068F04266
:100A100001D1981908903246012306A903A800F0D5
:100A200027FB03AB83E807006D10641C002DE3D1A6
:100A30004FF0010332466946B8F1000F03A802D017
:100A400000F001FB01E000F013FBC9E90001C9F867
:100A500008200AB0BDE8F087043F00000048704756
:100A6000240500207546FFF7F9FFAE4605006946EC
:100A7000534620F00700854618B020B5FFF79EFBCF
:100A8000BDE820404FF000064FF000074FF000088F
:100A90004FF0000B21F00701AC46ACE8C009ACE810
:100AA000C009ACE8C009ACE8C0098D46704710B574
:100AB0000446AFF300802046BDE81040FFF76ABB54
:100AC0004FF0013C50F8042B51F8043B9A4221D1DD
:100AD000A2EB0C03934313EACC1317D150F8042B69
:100AE00051F8043B9A4215D1A2EB0C03934313EA4D
:100AF000CC130BD150F8042B51F8043B9A4209D186
:100B0000A2EB0C03934313EACC13DBD04FF00000AD
:100B1000704700BFD01A01BAB1FA81F101F0180193
:100B200022FA01F0CB40C1F12001DBB2C0B2C01A01
:100B30002CFA01F3D11A914311EAC311E6D170479F
:100B400001491820ABBEFEE72600020070475FEAAD
:100B5000400C08BF91F0000F4FEA8C234FEAC122EE
:100B600043EA51514FEA1C5018BF00F5F0404FEADC
:100B7000300018BF41F000415FEA6C5C00F0298052
:100B8000BCF1FF3F08BF40F080407047130C06BF28
:100B900012044FF0100C4FF0000C130E04BF1202A1
:100BA0000CF1080C130F04BF12010CF1040C930F8D
:100BB00004BF92000CF1020CD30F04BF52000CF1E1
:100BC000010C11464FF00002A0F11F00A0EB0C0039
:100BD000704711F0004F08BF704731F000413FF4FB
:100BE000D5AF0B0C06BF09044FF0100C4FF0000CF2
:100BF0000B0E04BF09020CF1080C0B0F04BF090116
:100C00000CF1040C8B0F04BF89000CF1020CCB0F0C
:100C100004BF49000CF1010CCCF12003A0EB0C0047
:100C200022FA03F302FA0CF241EA030100F1010097
:100C3000704720F07F4C80EA030023F07F47ACEB45
:100C4000070303F57C5300F0004003F1FF032DE997
:100C500080494FEA154B09B44FEA144325EA0B4E7D
:100C600024EA03480FF2042606EB132749083E78CE
:100C70005FEA320203FB0667C7F5000707FB06F6CB
:100C80004FEA54374FEAD64606F1020607FB066CD8
:100C9000CCF1005C4FEA1C472CEA074C07FB06F43A
:100CA0000CFB06F504EB15464FEA961634BF002000
:100CB0004FF000404FEAD13706FB07FC4FEA1C4CCF
:100CC0000CFB0BF7D21B03FB0CF761EB07010CFBD2
:100CD0000EF7B0EB074072EB17420CFB08F734BF7E
:100CE000A2EB0742B2EB074261EB17414FEA0C441B
:100CF0004FEA910706FB07FC4FEA1C4C0CFB0BF775
:100D0000B0EBC74072EB573203FB0CF734BFA2EBDA
:100D1000C742B2EBC74261EB57310CFB0EF7B0EBA9
:100D2000C70072EB57720CFB08F734BFA2EBC70287
:100D3000B2EBC70261EB5771039F4FEA816141EA51
:100D4000921104EBCC044FEAD1374FEA826206FBE2
:100D500007FC42EA90124FEA80604FEA1C4C0CFB01
:100D60000BF7D21B03FB0CF761EB07010CFB0EF733
:100D7000B0EB074072EB17420CFB08F734BFA2EB55
:100D80000742B2EB074261EB17414FEA8C554FEA3D
:100D9000910704EB9C2406FB07FC4FEA1C4C0CFB60
:100DA0000BF7B0EBC74072EB573203FB0CF734BFC5
:100DB000A2EBC742B2EBC74261EB57310CFB0EF717
:100DC000B0EBC70072EB57720CFB08F734BFA2EB15
:100DD000C702B2EBC70261EB577115EB4C254FEA26
:100DE000816141EA92114FEA82624FEAD13742EAC9
:100DF000901206FB07FC44F100044FEA80604FEAC2
:100E00001C4C0CFB0BF7D21B03FB0CF761EB07012F
:100E10000CFB0EF7B0EB074072EB17420CFB08F728
:100E200034BFA2EB0742B2EB074261EB174115EB6F
:100E30001C154FEA813141EA92414FEA823242EA7F
:100E400090424FEA80304FEA0C7644F1000448EAC1
:100E500003434EEA0B484FF0000EB2EB080C71EB67
:100E6000030724BF624639464EEB0E0E4FF0000BCF
:100E70000018524149414BEB0B0BB2EB080C71EBE4
:100E800003077BF1000B24BF624639464EEB0E0E82
:100E90004FF0000B0018524149414BEB0B0BB2EBEA
:100EA000080C71EB03077BF1000B24BF6246394647
:100EB0004EEB0E0E51EA020718BF46F0010616EB84
:100EC0000E7655F1000254F1000103D5BDE8890109
:100ED000BDE80088BDE88901BDE80048B619524167
:100EE00041EB0101A3F10103704780807F7E7D7C8F
:100EF0007B7A7978777676757473727171706F6EAC
:100F00006E6D6C6C6B6A6A69686867666665646456
:100F1000636362616160605F5F5E5E5D5D5C5C5BE0
:100F20005B5A5A595958585757565655555554544F
:100F3000535352525251515050504F4F4F4E4E4DAD
:100F40004D4D4C4C4C4B4B4B4A4A4A4949494848F9
:100F50004847474747464646454545444444444339
:100F600043434342424242414141002B9C4630D4DC
:100F700077002BD01CB54FEA370703B44FF01000B1
:100F80004FF01001BAF1000F06D0BCF1000FDCBF2A
:100F900040F0080040F008014FF000000FBCBDE831
:100FA00010400BF1010BBBF1010F08BF5FEA1707FF
:100FB00022BF12F1010211F101014FF0004143F192
:100FC000000300F0004043EA00007047F9D35708DF
:100FD000D0E746EA064613F1400F4FEA16461FDDFA
:100FE00013F1200FDFBF16430A46002120335B4276
:100FF000BED0C3F1200746EA064602FA07F74FEAD9
:10100000164646EA0706C3F1200722FA03F201FA60
:1010100007F721FA03F14FF0000342EA0702A7E7BE
:1010200046EA020646EA06464FEA164646EA010640
:10103000BCBF46EA0646360C4FF000034FF00002F4
:101040004FF0000194E72DE9804C9A46934670B426
:1010500091E8380007C831EA400C48BF34EA430C35
:1010600003D5FFF7E6FDFFF780FFF0BCBDE8008C7D
:101070002DE9804C9A46934670B491E8380007C831
:1010800010F0804F08BF13F0804F03D100F005F837
:10109000FFF76BFFF0BCBDE8008C20F07F4780EAD3
:1010A000030023F07F4C07EB0C03A3F57C5300F007
:1010B0000040A3F1FE0392F0000F00F0B38095F022
:1010C000000F00F077802DE901494FEA11404FEA07
:1010D000144621EA004800FB06FC24EA064708FB08
:1010E00006F607FB08F800FB07F718EB06484CEB81
:1010F000164C4FEA124B18EB07484FEA15464CEBDB
:10110000174022EA0B4E0BFB06FC25EA06470EFBB6
:1011100006F607FB0EFE0BFB07F71EEB064E4CEB2D
:10112000164C4FF000061EEB074E4CEB174B18EB1E
:101130000B0840F1000018EB0E0B58EB000840F1D3
:1011400000008F1A4FF000013CBFC943661B14BF5B
:10115000B5EB040C00213CBFC943F61B4FEA174412
:101160004EEA8E0E27EA04454FEA1C4704FB07624D
:101170002CEA074C05FB07F70CFB05F604FB0CFCFF
:1011800016EB074642EB174216EB0C4642EB1C42AD
:101190001BEB060658EB0202414146EA9E0601D5CA
:1011A000BDE80189B619524141EB0101A3F10103E8
:1011B000BDE801894FEA14454FEA114724EA054684
:1011C00021EA074C05FB07F406FB07F70CFB06F1C9
:1011D00005FB0CFC11EB074144EB17444FEA1247A7
:1011E00011EB0C4144EB1C4422EA074C05FB07F2CF
:1011F00006FB07F70CFB06F605FB0CFC16EB074697
:1012000042EB174216EB0C4642EB1C456A1854F1B0
:10121000000148BF7047B619524141EB0101A3F1EB
:101220000103704795F0000F37D04FEA11424FEAA3
:10123000144721EA024624EA074C02FB07F106FBA9
:1012400007F70CFB06F402FB0CFC14EB074441EB24
:1012500017414FEA154714EB0C4441EB1C4125EABA
:10126000074C02FB07F506FB07F70CFB06F602FB33
:101270000CFC16EB074645EB174516EB0C4645EB09
:101280001C42121951F1000148BF7047B619524172
:1012900041EB0101A3F1010370474FEA14454FEA06
:1012A000114724EA054621EA074C05FB07F106FB36
:1012B00007F70CFB06F24FF0000605FB0CFC12EBE7
:1012C000074241EB174112EB0C4251EB1C4148BF66
:1012D0007047921841EB0101A3F101037047FEE74B
:1012E0002DE9F04700254FF0010A4FF48059DFF84F
:1012F0008480214C00F012FAA06000F00FFA4F46F3
:10130000E06002E000F00AFAE0603946404600F092
:10131000FBF920B9D4E90201801C8842F2D82820C8
:1013200002F002F9B94639464746404600F0ECF96A
:101330000028C5F107010AFA01F019D03043C6B2FE
:1013400000F0ECF9C4F8080000F0E8F9E060494664
:10135000384600F0D9F920B1D4E90201801C884256
:10136000F2D86D1CEDB2082DC4D33046BDE8F0872D
:101370008643E5E7000C0140100000202DE9FF4105
:10138000002502204FF480544FF00108CDE90250AF
:10139000224ECDE900482F466946304600F0C4F899
:1013A00000222146304600F0B4F9142000F0AAF8DB
:1013B00001222146304600F0ACF91E2002F0B4F8BC
:1013C000CDE901786946304600F0AEF8282002F0F9
:1013D000ABF82146304600F097F940B9502002F0B2
:1013E000A3F82146304600F08FF900B1012500F046
:1013F00095F90B4FC7F8080000F090F9F860214606
:10140000304600F081F920B1D7E90201801C884202
:10141000F2D804B02846BDE8F0810000000C01407D
:1014200010000020704710B590F82110002202290A
:1014300005D00421816380F82020012010BD0168BF
:101440000B6823F00E030B6001680B6823F00103A7
:101450000B6090F84030C46B012101FA03F3636024
:1014600080F8211080F82020104610BD10B590F8AB
:1014700021100024022903D00421816301243DE0CE
:1014800001680A6822F00E020A6001680A6822F008
:1014900001020A601A4A0168914201D1012121E04A
:1014A000174A1432914201D110211BE0144A28320C
:1014B000914201D1891515E0114A3C32914201D186
:1014C00089140FE00E4A5032914202D14FF480311C
:1014D00008E00B4A6432914202D14FF4801101E0DE
:1014E0004FF08071064A083A5160012180F82110BE
:1014F000002180F82010416B01B18847204610BDC3
:101500000800024070B5044600F008F90546601C6A
:1015100002D004480078044400F000F9401BA042C7
:10152000FAD370BD200000202DE9F84FDFF8B89104
:101530000024A9F1040B23460F2709F1040AABF19B
:10154000040EC9E00125A5402A40AA427DD1674E7C
:10155000D1F804C0ACEB0608B44532D014DCBCF1C1
:10156000030F3AD009DCBCF1000F2AD0BCF1010F07
:101570001CD0BCF1020F31D11DE0BCF1110F17D00E
:10158000BCF1120F2AD119E0B8F5881F19D006DC7A
:10159000B8F5803F15D0B8F5801F1FD111E0B8F520
:1015A000001F0ED0B8F5041F18D10AE0CB6815E073
:1015B000CB681B1D12E0CB6808330FE0CB680C33FF
:1015C0000CE08B682BB1012B4FF0080303D0456171
:1015D00004E0042302E0056100E00023FF2A01D8B3
:1015E000064601E000F104064FEA840501D9A5F1A1
:1015F0002005D6F8008007FA05FC28EA0C0803FA53
:1016000005F548EA0508C6F800804D68ED0062D58A
:10161000374DAE6946F00106AE61AD6924F00306B0
:1016200005F001050095334D06EB050CDCF808507C
:10163000A607360F07FA06F825EA0805DFF8B8808E
:10164000404503D14FF0000817E044E0DFF8AC80DC
:10165000404502D14FF001080FE0DFF8A48040457B
:1016600002D14FF0020808E0DFF89880404502D12F
:101670004FF0030801E04FF0040808FA06F848EAC2
:101680000508CCF808804D68D9F80060ED024D4699
:1016900001D5164300E096432E604D68DAF80060ED
:1016A000AD02554601D5164300E096432E604D68C5
:1016B000DBF80060AD035D4601D5164300E09643BC
:1016C0002E604D68DEF80060ED03754601D51643C7
:1016D00000E096432E60641C0D682A46E5407FF4C6
:1016E00031AFBDE8F88F0000080401400000111080
:1016F000001002400000014000080140000C0140C1
:1017000000100140001401408068084000D0012012
:1017100070470AB1016170470904FBE7014880681E
:10172000704700002000002070B5040025D094F818
:101730003D00002520B984F83C50204600F004FA12
:10174000242084F83D002068016821F00101016037
:101750002068016841F4004101602068016821F4BB
:101760000041016000F04CFB4D4A6168914201D894
:101770004C4900E04C49884201D2012070BD4B49E0
:101780002368B0FBF1F15E6826F03F060E435E6011
:101790006368934206D94FF4967359434FF47A73B2
:1017A000B1FBF3F12368491C1E6A26F03F06314362
:1017B00019626168914210D84900401EB0FBF1F2F5
:1017C000521CC2F30B02042A01D2042022E0B0FB17
:1017D000F1F0401CC0F30B001CE0A268F2B301EB77
:1017E000C10303EB0116431EB3FBF6F35B1C43F48A
:1017F00080431B0549D092B301EBC10202EB0111FA
:10180000401EB0FBF1F0401CC0F30B0040F48040E0
:1018100040F400402168CA694CF6FF739A431043B4
:10182000C861D4E9071001432068026822F0C002B1
:1018300011430160D4E9030101432068826848F242
:10184000FF339A4311438160D4E9050108432168BD
:10185000CA6822F0FF021043C86001E00EE016E003
:101860002068016841F0010101602564202084F8AE
:101870003D00256384F83E50002070BD01EB410619
:10188000431EB3FBF6F35B1CB3E70120C2E701EB99
:101890004101401EB0FBF1F0401CC0F30B00B7E764
:1018A000A086010080841E0000093D0040420F0018
:1018B0002DE9FF4F81B089460446FFF72FFF05460B
:1018C00094F83D004FF0000820287DD11923012213
:1018D00050492046009501F017F8002874D194F87B
:1018E0003C00012870D0012084F83C002068016889
:1018F000C90703D1016841F0010101602068016856
:1019000021F400610160242084F83D000026266453
:101910004148E0624FF0011B20272068016841F434
:10192000807101600095002259462046049B00F01A
:10193000EBFF50B120680068C00502D54FF400707D
:101940002064032005B0BDE8F08F216809F0FE0097
:101950000861FFF7E3FE2168054648694969C0F35D
:101960004000C1F380214FF0A00A0FE0FFF7D6FE40
:10197000411B0498814200D808B984F83DA0216831
:1019800048694969C0F34000C1F3802194F83D20C3
:10199000A02A02D008B90029E8D084F83D70206858
:1019A0004169C943890716D4016841F40071016097
:1019B0002068416980691923012216492046009553
:1019C00000F0A2FFB8B900E021E084F83D7084F88F
:1019D0003C600020B6E7016841F4007101602168B5
:1019E0006FF480604861192301220A49204600955E
:1019F00000F08AFF08B10120A4E7039808F101086C
:101A000080458AD384F83D7084F83C60F3E7022077
:101A100098E70000020010000000FFFF2DE9F84FDA
:101A20001F4690468A460446DDF82890FFF776FE6A
:101A3000054694F83D0020287FD119230122404912
:101A40002046009500F060FF002876D194F83C0015
:101A5000012872D0012084F83C0020680168C90781
:101A600003D1016841F0010101602068016821F49F
:101A700000610160212084F83D00102084F83E00C0
:101A800000262664C4F824806785608D20852D4853
:101A9000E0622B464A465146204600F0BBFE90B914
:101AA000206841698069009036E02A464946204610
:101AB00000F0D0FF50B1206C042804D120680168E8
:101AC00041F4007101600120BDE8F88F606A21686F
:101AD00000780861606A401C6062618D491E618502
:101AE000218D491E89B2218522685369DB435B073A
:101AF0000BD451B100781061606A401C6062608D47
:101B0000401E6085208D401E20852A46494620467D
:101B100000F0CEFE0028CED1208D0028C5D154F88B
:101B20003D0B016841F400710160202004F81E099A
:101B3000E67766770020C7E7FFE70220C4E70000EA
:101B4000020010000000FFFF10B586B000210091D8
:101B500001910291039100680F4988421AD10F4CFC
:101B6000A06940F00800A061A069694600F0080083
:101B70000490C02000901220019003200390084898
:101B8000FFF7D2FCE06940F40010E061E06900F486
:101B90000010049006B010BD005400400010024038
:101BA000000C01400248816802781144816070474E
:101BB00020000020074810B5016841F010010160C5
:101BC000032000F075F80F2000F006F800F024F86C
:101BD000002010BD0020024070B50D4D04464FF4AA
:101BE0007A712878B1FBF0F00A490968B1FBF0F08E
:101BF00000F0DCFA48B9102C07D200222146501E12
:101C000000F036F800206C6070BD012070BD00004F
:101C1000200000202C0000200C4808B5816941F00C
:101C200001018161816901F001010091C16941F007
:101C30008051C161C06900F0805000900448416843
:101C400021F0E06141F00071416008BD00100240E8
:101C500000000140002809DB00F01F020121914033
:101C60004009800000F1E020C0F80011704700003A
:101C7000F0B40E4B1B680C46C3F30223C3F10705F7
:101C8000042D00D90425191D072901D2002300E0E5
:101C9000DB1E012606FA05F1491E214099409E40AF
:101CA000761E16403143F0BC01F0FDBA0CED00E0A9
:101CB000064900F0070208684FF6FF03184040EAA3
:101CC0000220034A10430860704700000CED00E05A
:101CD0000000FA052DE9F0470F46050061D0434E9C
:101CE000306800F00700B84209D2306820F00700E1
:101CF00038433060306800F00700B84251D128689E
:101D00003B4C810712D5400703D5606840F4E06082
:101D100060602878000703D5606840F46050606018
:101D20006068A96820F0F000084360602878C00768
:101D300028D06868012810D02168022810D08907AF
:101D400000292EDA616821F0030101436160FFF789
:101D5000E5FC804641F288390DE021688903EFE710
:101D60008901EDE7FFF7DAFCA0EB0801494502D94C
:101D70000320BDE8F0876068696800F00C00B0EBF4
:101D8000810FEFD1306800F00700B8420BD93068FE
:101D900020F0070038433060306800F00700B84298
:101DA00001D00120E5E72878400705D56068E9689B
:101DB00020F4E060084360602878000706D560687A
:101DC000296920F4605040EAC100606000F038F8F2
:101DD0006168084AC1F30311515CC84006490860B4
:101DE00006480068FFF7F8FE0020C2E70020024026
:101DF00000100240F84700082C00002024000020BA
:101E00000448054900684968044AC1F30221515C4D
:101E1000C84070472C00002000100240084800080D
:101E20000448054900684968044AC1F3C221515C6D
:101E3000C84070472C0000200010024008480008ED
:101E40000E4A51680E4801F00C03042B11D0082BE8
:101E50000FD10C48C1F38343C903C05C0AD5516854
:101E6000084AC1F34041921E515C054A5043B0FB01
:101E7000F1F07047044948437047000000100240E9
:101E800000127A00E847000800093D002DE9F84FEC
:101E9000040070D02078C04DC00749D06868C0F3F6
:101EA0008100012807D06868C0F38100022809D1A9
:101EB0006868C00306D52868800339D560680028A3
:101EC000E7D035E06068B0F5803F0BD010B1B0F5D9
:101ED000A02F11D0286820F480302860286820F4D2
:101EE000802002E0286840F480302860606890B16B
:101EF000FFF714FC06460AE0286840F480202860BA
:101F0000F0E700BFFFF70AFC801B642873D828683D
:101F10008003F7D50CE0FFF701FC064605E000BFA3
:101F2000FFF7FCFB801B6428F0D828688003F7D4F7
:101F300020789A4E80074FF001094FF0000839D5FC
:101F4000686810F00C0F07D06868C0F381000228A1
:101F500009D16868C00306D42868800714D52069B1
:101F6000012808D110E02069B0B1C6F80090FFF751
:101F7000D5FB074605E00AE1FFF7D0FBC01B0228AE
:101F8000C4D828688007F7D52868616920F0F80070
:101F900040EAC10028600DE0C6F80080FFF7BEFBF4
:101FA000074604E0FFF7BAFBC01B022823D82868C5
:101FB0008007F7D4207800072CD57948A169D9B1DA
:101FC000C0F80090FFF7AAFB074604E0FFF7A6FB66
:101FD000C01B02280FD8686A8007F7D571484FF4F4
:101FE000FA510068B0FBF1F0009000BF0098411E6C
:101FF0000091FAD20EE080E0C0F80080FFF78EFB7F
:10200000074604E0FFF78AFBC01B022875D8686A00
:102010008007F7D42078400760D5E8690027C00022
:1020200008D4E86940F08050E861E869012700F0D1
:10203000805000905C480168C90513D4016883464C
:1020400041F480710160FFF769FB824606E000BF42
:10205000FFF764FBA0EB0A0064284ED8DBF8000011
:10206000C005F5D5E06801280AD008B1052813D0CD
:10207000286A20F001002862286A20F0040002E0AB
:10208000286A40F001002862E06841F2883B98B17C
:10209000FFF744FB82460BE0286A40F00400286208
:1020A000EEE700BFFFF73AFBA0EB0A0159455AD80B
:1020B000286A8007F6D50CE0FFF730FB824605E082
:1020C000FFF72CFBA0EB0A0159454CD8286A800782
:1020D000F6D41FB1E86920F08050E861E06988B368
:1020E0006968C1F38101022944D00228C6F86080E2
:1020F00004D0FFF713FB044638E034E0FFF70EFB93
:10210000074604E0FFF70AFBC01B02282BD828680B
:102110008001F7D4206AB0F5803F05D16868A168D6
:1021200020F4003008436860D4E908010843696876
:1021300021F4741108436860C6F86090FFF7EEFA66
:10214000044606E025E000BFFFF7E8FA001B02287E
:1021500009D828688001F7D51BE000BFFFF7DEFA39
:10216000001B022802D90320BDE8F88F28688001EF
:10217000F4D40EE00128F7D06868226A00F48031B8
:10218000914204D1616A00F47010884201D00120AC
:10219000EAE70020E8E700000010024000004242A9
:1021A000800442422C0000200070004010B5401E08
:1021B000B0F1807F01D3012010BD4FF0E0246061B9
:1021C0000F21601701F06FF80020A0610720206147
:1021D000002010BD70B590F83C20012A26D00124C3
:1021E00080F83C40022280F83D2003685A689D68D0
:1021F00022F070060A6832435A600D4B02689A4218
:1022000008D0B2F1804F05D00A4B9A4202D00A4B57
:102210009A4204D1496825F080031943916080F8FF
:102220003D40002180F83C10084670BD022070BD82
:10223000002C0140000400400008004010B50400DC
:1022400003D094F83D0010B107E0012010BD00203C
:1022500084F83C00204600F01FF8022084F83D007E
:10226000211D206800F06CFE012084F8460084F8EF
:102270003E0084F83F0084F8400084F8410084F870
:10228000420084F8430084F8440084F8450084F850
:102290003D00002010BD000008B5006806498842D6
:1022A00008D10648816941F400618161806900F4C8
:1022B0000060009008BD0000002C014000100240AA
:1022C00090F83D10012901D001207047022180F8CB
:1022D0003D1000680B49884208D0B0F1804F05D00E
:1022E0000949884202D00949884204D1816801F035
:1022F0000701062903D0016841F0010101600020B7
:1023000070470000002C014000040040000800401D
:1023100070B5044690F83C000025012817D001262E
:1023200084F83C60022084F83D002068826822F036
:10233000770222F47F4282600868502838D00DDC92
:1023400020284FD005DC90B3102811D14AE002209C
:1023500070BD302846D040280AD13BE060282FD0FD
:1023600070280DD0B0F5805F03D0B0F5005F12D0BB
:10237000012584F83D60002084F83C00284670BDAB
:10238000CB68D1E90121206800F016FE2068816841
:1023900041F0770109E0CB68D1E90121206800F024
:1023A0000BFE2068816841F480418160E1E719E01B
:1023B000CA684968206800F011FE5021206806E0D4
:1023C000CA684968206800F01AFE6021206800F0A1
:1023D000FDFDCEE7CA684968206800F0FFFD402196
:1023E0002068F4E7226801461046F0E7704770471E
:1023F000F8B5016804460868CA684B6910F00F0F09
:102400004FF0000559D003F0010602F490773743EE
:1024100065D0C10705D0D10503D5616C41F001013C
:102420006164410705D5D90703D0616C41F0020111
:102430006164810705D5D90703D0616C41F00401BF
:102440006164010707D502F02001314303D0616CBC
:1024500041F008016164616C00293AD0800604D51E
:10246000900602D5204600F00BFE20684069616CA2
:10247000C0F38010090700D460B3204600F0D9FDF6
:1024800020684069400621D52068143050E8001FBC
:1024900021F0400140E80012002AF5D1E06BA8B11C
:1024A0006D494163E06BFEF7E1FF002811D0E06B5E
:1024B000416B01B0BDE8F040084783060FD5930695
:1024C0000DD52046BDE8F84000F0DABD2046FFF704
:1024D0008EFFF8BD2046FFF78AFF6564F8BD266BC6
:1024E0002023012E7CD1C6067AD5D60678D5086879
:1024F0004868009048694FF00206400640D5E16BFD
:10250000086840680004000CE8D0A28D8242E5D93A
:10251000E085886920282DD020680C3050E8001F05
:1025200021F4807140E80012002AF5D120681430AF
:1025300050E8001F21F0010140E80012002AF5D107
:102540002068143050E8001F21F0400140E80012DC
:10255000002AF5D184F84230256320680C3050E819
:10256000001F21F0100140E80012002AF5D1E06BB5
:10257000FEF759FF6663A08DE18D401A81B22AE013
:10258000A08DE18D401A81B2E08D0028A6D00029EF
:10259000A4D022680C3252E8000F20F4907042E878
:1025A0000007002FF5D12068143050E8002F22F0EA
:1025B000010240E80027002FF5D184F8423025635E
:1025C00020680C3050E8002F22F0100240E8002371
:1025D000002BF5D166632046FFF708FFF8BDFFE743
:1025E00005062BD5150629D594F841002128F5D1EB
:1025F000A068B0F5805F01D12069B0B1206A411CAC
:102600002162216800784860E08C401E0004000CC4
:10261000E084E3D12068C16821F08001C1602068B6
:10262000C16841F04001C160D8E7206A0088C0F36A
:1026300008004860206A801C2062E5E74006CDD58E
:102640005006CBD5CA68204622F04002CA6084F802
:10265000413000F0C6F8C1E72330000870B504002F
:1026600004D094F84100002510B106E0012070BDAF
:1026700084F84050204600F023F8242084F84100DC
:102680002068C16821F40051C160204600F05AFD65
:102690002068016921F4904101612068416921F0BD
:1026A0002A0141612068C16841F40051C16065643C
:1026B000202084F8410084F842006563002070BD4A
:1026C00030B585B00024009401940294039400680E
:1026D000184988422CD11848816941F480418161B0
:1026E000816901F480410491816941F004018161B3
:1026F0008069124D00F0040004904FF400700090C7
:10270000022001900320039069462846FEF70CFF43
:102710002815CDE90004694628460294FEF704FF17
:10272000002211462520FFF7A3FA2520FFF792FA91
:1027300005B030BD003801400010024000080140E3
:1027400070472DE9F843044690F841009846164634
:102750000D46202802D00220BDE8F88385B17EB165
:1027600000206064212084F84100FEF7D7FFA68492
:102770008146E684A0682027B0F5805F02D003E0A0
:102780000120E9E7206910B12E4600250EE0002661
:102790000CE08021204600F031FDA8B9C6B116F842
:1027A000010B21684860E08C401EE084E08C4B46C1
:1027B0004FF00002CDF800800028EAD14FF0400130
:1027C000204600F01BFD40B184F841700320C3E7B0
:1027D00035F8020BC0F30800E3E784F841700020ED
:1027E000BAE77047FEE701684A69D24352050FD441
:1027F0006FF480624A61002140F8301F202242734A
:102800008173026942F00402026101730120704782
:1028100000207047F8B50446C06A1E460D461746AC
:10282000082807D0012805D010F5803F02D0206B82
:10283000122804D12068016841F4807101601346B8
:1028400000224FF001112046009600F05DF840B1E3
:1028500020680068C00502D54FF400702064032092
:10286000F8BD2069B0F5804F0ED00620216800EA3F
:10287000D51040F0F000086133463A460B49204637
:1028800000F08AF878B902E005F0FE0000E0E8B256
:1028900021680861054933463A46891F204600F001
:1028A0007BF80028DCD00120F8BD00000800010002
:1028B00070B516460D4604461EE02046FFF793FF0E
:1028C00008B1012070BD681C16D0FEF727FF801BE1
:1028D000A84200D885B920684069C04340070BD59D
:1028E000002044F8300F20216173A073216941F06A
:1028F000200121612073E4E720684069C04340075C
:10290000DBD4002070BD00002DE9F0479846174643
:102910000D460446C1F30746DDF820902AE000BFCB
:10292000B8F1FF3F26D0FEF7F9FEA0EB09014145C3
:1029300002D8B8F1000F1DD12068012E16D0806991
:1029400025EA00000004000C12D00020B84211D18A
:10295000002044F8300F20216173A073216941F0F9
:102960002001216120730120BDE8F0874069E7E77D
:102970000120EBE72068012E0AD0806925EA0000DB
:102980000004000C06D00020B842C9D00020EBE7BC
:102990004069F3E70120F7E72DE9F047984616462E
:1029A0000D4604464FF000094FF0200AC1F30747D7
:1029B00023E020684069C043400515D420680168C1
:1029C00041F40071016021686FF480604861C4F8CF
:1029D000309084F83DA084F83E90216C41F00401D1
:1029E000216484F83C9021E0701C06D0FEF796FE2E
:1029F000A0EB0800B04203D816B1012F1FD021E090
:102A00002068012F15D0806925EA00000004000C21
:102A100018D000BF44F8309F84F80DA084F80E90C1
:102A2000216941F02001216184F80C900120BDE86A
:102A3000F087406925EA00000004000CEAD1206814
:102A4000406901E02068806925EA00000004000C6C
:102A5000AFD1ECE770B516460D4604461EE02046A1
:102A6000FFF7C1FE08B1012070BD681C16D0FEF74B
:102A700055FE801BA84200D885B920684069C04334
:102A800000060BD5002044F8300F20216173A0739D
:102A9000216941F0200121612073E4E72068406949
:102AA000C0430006DBD4002070BD000070B586B0C6
:102AB000002418480094019402940394816941F021
:102AC00020018161816901F020010491816941F057
:102AD00008018161816901F008010491816941F077
:102AE0000401816180690C4E00F004004FF48055B0
:102AF0000490002229463046FEF70BFE0120009587
:102B0000CDE901040220039069463046FEF70CFD32
:102B100006B070BD00100240000C014010B586B038
:102B200000241748009401940294039404941349D8
:102B3000059401604721C0E901144FF6FF71C0E917
:102B4000031444618461FFF779FB08B172B6FEE7B4
:102B50004FF48050009069460948FFF7D9FB08B14F
:102B600072B6FEE7049404A905480594FFF732FB0A
:102B7000002801D072B6FEE706B010BD002C01405F
:102B800084040020FEE7FEE770472DE9FF4F8346EF
:102B90008946D81DC11700EB517000271D464FEA2A
:102BA000E00A3E46DDF8348024E000241AE06007A5
:102BB00002D07806070E08E0E01704EB5071029887
:102BC00000EBE10106FB0A100778380608D50E98DD
:102BD0001FFA89F1C2B20BEB040080B200F00EF8CC
:102BE000641C24B2AC42E2DB761C09F1010036B26F
:102BF0000FFA80F94645D8DBBDE8FF8F70B5802815
:102C000013D2402911D20B4B012401F007051E7984
:102C1000AC40094BC90800EBC1100EB132B101E064
:102C2000012A03D0195CA143195470BD195C2143DA
:102C3000FAE70000080000203000002028B1FF2241
:102C40004FF480610248FDF784BB0022F8E70000E2
:102C500030000020014A1080518070470800002099
:102C600010B500F06DFC44F6206301227821544831
:102C7000FEF71EFE08B1002010BD40F6C210401E37
:102C8000FDD1AE220021782000F060FC202200213E
:102C9000782000F05BFC10220021782000F056FC28
:102CA000B0220021782000F051FCC82200217820B9
:102CB00000F04CFC00221146782000F047FC102266
:102CC0000021782000F042FC40220021782000F012
:102CD0003DFC81220021782000F038FCFF220021F9
:102CE000782000F033FCA1220021782000F02EFC97
:102CF000A6220021782000F029FCA82200217820BB
:102D000000F024FC3F220021782000F01FFCA422C8
:102D10000021782000F01AFCD3220021782000F056
:102D200015FC00221146782000F010FCD52200216D
:102D3000782000F00BFCF0220021782000F006FC47
:102D4000D9220021782000F001FC222200217820E5
:102D500000F0FCFBDA220021782000F0F7FB1222C1
:102D60000021782000F0F2FBDB220021782000F027
:102D7000EDFB20220021782000F0E8FB8D220021CD
:102D8000782000F0E3FB14220021782000F0DEFB25
:102D9000AF220021782000F0D9FB2E2200217820DC
:102DA00000F0D4FB0020FFF749FF00F071F8054860
:102DB00000210180418001214171084610BD0000C1
:102DC00030040020080000202DE9F0478146254806
:102DD0000D46924601882A781144802905D2804602
:102DE000408869780844402802D30020BDE8F08775
:102DF00000262AE0A9F1200101FB00606A68002496
:102E000032F810701DE000BF07FA04F0000409D585
:102E1000B8F80210B8F800003144204489B280B2FA
:102E200052460BE0BAF1000F1AD00022B8F8021097
:102E3000B8F800003144204489B280B2FFF7DEFECA
:102E4000641C2878A042DFD8761C6878B042D1D8BC
:102E5000B8F800102A7848461144A8F80010C5E7D1
:102E60000122E3E70800002070B515460E4604462F
:102E700009E02A463146FFF7A7FF2178884201D0B2
:102E8000C8B270BD641C20780028F2D1C0B270BDF9
:102E900070B5104D002400BF04F1B000C2B2002193
:102EA000782000F053FB00221146782000F04EFB02
:102EB00010220021782000F049FB05EBC41280238A
:102EC0004021782000F052FB641CE4B2082CE3D3CC
:102ED00070BD0000300000207047FEF763BE30B5C3
:102EE0008FB028216846FDF73CFA14210AA8FDF7A7
:102EF00038FA01210804CDE90010002402940225CB
:102F00000491CDE907504FF4E01009906846FEF7B0
:102F1000BDFF08B172B6FEE70F20CDE90A054FF4F8
:102F20008060CDE90C4002210AA80E94FEF7D2FE83
:102F3000002801D072B6FEE70FB030BD7047000028
:102F4000F0B50268194B1A4C1A4D4FF08047984261
:102F500005D0B84203D0A04201D0A84203D122F04C
:102F600070064A683243984205D0B84203D0A04266
:102F700001D0A84203D122F44074CA6822434C69AC
:102F800022F08002224302608A68C2620A6882627A
:102F9000984201D109690163012141610169C907B1
:102FA00003D0016921F001010161F0BD002C014055
:102FB000000400400008004010B5846842EA032283
:102FC00024F47F440A432243826010BD826822F0C9
:102FD00070020A4342F007018160704710B5036A2E
:102FE000046A24F001040462846924F0F00444EAD1
:102FF000021423F00A020A438461026210BD10B574
:10300000036A046A24F010040462846923F0A003B4
:1030100024F4704444EA023243EA011182610162FD
:1030200010BD10B5406A0021C185C184FFF7DFF9EA
:1030300010BD01680C3151E8002F22F4907241E874
:103040000023002BF5D10168143151E8002F22F044
:10305000010241E80023002BF5D1016B012909D1C0
:1030600001680C3151E8002F22F0100241E80023E2
:10307000002BF5D1202180F8421000210163704718
:1030800008B590F84210222901D0022008BD8268BC
:103090004FF480539A4201D1016921B1816A9A4269
:1030A0001BD04AB10AE00268816A5268C2F3080282
:1030B0000A80816A891C08E0026972B1026852685C
:1030C00002F07F020A70816A491C8162C18D491E2B
:1030D0000904090CC18503D01BE002685268F1E7BE
:1030E0000168CA6822F02002CA600168CA6822F436
:1030F0008072CA6001684A6922F001024A61202197
:1031000080F8421000214163026B012A03D0FFF7CF
:1031100017FB002008BD016301680C3151E8002F46
:1031200022F0100241E80023002BF5D101680A6863
:10313000D20602D50A6849680091818DFFF756F9D9
:10314000E7E7000070B5044600680169E26821F411
:103150004051114301612169A06808436169084336
:103160002168CA6841F20C639A430243CA6020682E
:103170004169A26921F44071114341611E492068EF
:10318000884202D1FEF74CFE01E0FEF739FE00EB6B
:10319000C00101EB0012606864218000B2FBF0F313
:1031A000B3FBF1F36FF018067343B2FBF0F5B2FB1B
:1031B000F0F605EB8305322303EB0515B5FBF1F5BE
:1031C000B6FBF1F605F0F00505EB0615B2FBF0F6DF
:1031D000B2FBF0F0B0FBF1F06FF01802504306EBD9
:1031E000800003EB0010B0FBF1F0216800F00F004D
:1031F0002844886070BD0000003801402DE9F84384
:10320000984617460D460446089E24E0701C22D0BE
:10321000FEF784FAA0EB0800B0421AD8CEB12068BD
:10322000C168490717D5802D15D0402D13D00168EE
:10323000C94309070FD40168002540680090204663
:10324000FFF7F7FE0820606484F840500120BDE8D5
:10325000F8830320FBE72068006835EA000004D00B
:103260000020B842D2D00020F1E70120F9E70000A9
:103270000148FFF7BDB80000CC040020FEE749007C
:1032800050EAC12018BF04204A0D18BF40F00100C9
:1032900040F2FF72B2EB515F08BF40F0020001281C
:1032A00008BF052070470907090E002804DB00F15C
:1032B000E02080F80014704700F00F0000F1E020DB
:1032C00080F8141D704730380A2801D20120704759
:1032D0000020704770B51E4D92B0E87800F002FBF8
:1032E0001C4E0022334600F0A5F900F071F90446A7
:1032F000A87800F0EDFB214600F088FB04466878D2
:1033000000F0F0FA0022334600F094F900F060F982
:103310000646287800F0DCFB314600F077FB00F031
:1033200049FB06460D46204600F044FB03958DE818
:10333000430009A2322104A8FCF768FF82B24FF0D3
:10334000FF3304A90B48FFF7FCF912B070BD000071
:10335000100000200000244054656D703A20252E96
:103360003266B0432C2048756D3A20252E326625F2
:10337000250D0A00CC0400202DE9FC41FDF7FEFFDD
:1033800000286CD0FDF7ACFF384C2070FDF7A8FF8B
:103390006070FDF7A5FFA070FDF7A2FFE070FDF7DC
:1033A0009FFF207127786678A578B9194A19E178C6
:1033B0000A44824253D1084600F094FADFF8B08004
:1033C0000022434600F036F900F002F90446284690
:1033D00000F07EFB214600F019FB0446304600F069
:1033E00081FA0022434600F025F900F0F1F8054685
:1033F000384600F06DFB294600F008FB05462046E4
:1034000000F0D8FA02460B461AA11E48FCF7E8FE67
:1034100000211420FFF71EFC01221B491948FFF769
:1034200023FD284600F0C6FA02460B4617A11548B0
:10343000FCF7D6FE14210846FFF70CFC01221249C6
:103440001048FFF711FD01214020CDE90001802344
:10345000124A23210020FFF798FBFFF719FDBDE872
:10346000FC414FF4FA60FEF74DB800001000002058
:103470000000244054656D703A20252E32662043AA
:1034800020202000140500200000002048756D69F0
:103490003A20252E3266202525202000E64300080C
:1034A000FEF788FBFFF71BFDFFF700FB1B481A49DF
:1034B000002401601A49C0E901144FF48041C0E9B9
:1034C000034144618461C4610462FEF72DF908B1CF
:1034D00072B6FEE7FFF722FB104812499C300160EC
:1034E0004FF41641C0E901140C21C460C0E9044145
:1034F0008461C461FFF7B2F808B172B6FEE707480D
:103500005430FEF7DDFEFFF7ABFB00BFFFF734FFE3
:10351000FFF7E0FEFAE7000000540040300400200E
:10352000801A060000380140044900220B685A62E4
:1035300009684A6A8242FCD3704700008404002074
:103540000148401EFDD1704790D003001CB50223F6
:103550008DF804100A2100918DF80520014601AA7A
:103560000148FEF75BFA1CBD3004002070B5C2B004
:1035700000248DF8041001A904E0155D0E19641CE7
:103580007570E4B29C42F8D30A2100915B1C01469D
:103590009BB201AA0248FEF741FA42B070BD00009A
:1035A0003004002010B500290AD00878002807D080
:1035B00005487844FDF784FA002801D0002010BDAA
:1035C0000248784410BD0000121300000A130000E6
:1035D00021F00042A2F16052B2F5801F01F00043D9
:1035E00028BFD2F17F6C0BD95FEA001C43EAC2020C
:1035F00042EB507018BF704728BF20F001007047A1
:10360000B2F5801FBCBF184670474FEA410C1CF54D
:10361000001F02D2084600F0B4BA70B500F075F988
:1036200000000089FFF7F6BF4FF00040A0F58000D2
:10363000704700002DE9C04130B4DFF8A0C23CEA79
:10364000111418BF3CEA131400F0EC8081EA030562
:103650001CEA111444EAD57418BF1CEA131500F0D3
:10366000C780A4EB05044FF0004545EAC12145EAB7
:10367000C32341EA505143EA525304F17F74994203
:1036800004F500344FEAC0204FEAC22208BF90423E
:1036900000F09C804FEA13650FF24016765D4FEA0A
:1036A000134506FB05F7C7F1807706FB07F74FEADE
:1036B000D737A7FB03687642C8F58038A7FB06CE4C
:1036C00038BFA8F1010807FB08E64FF0000EA6FB83
:1036D000028CE6FB03CEDCF1000CCEF1004E38BFCD
:1036E000AEF1010EA6FB0C584FF000074FF000059D
:1036F000E6FB0E87A1FB08C6A0FB07CE16EB0E0665
:1037000045F10005E1FB076515F1E04E7EBFA4F52C
:1037100080345FEA46066D4116F1800745F10005E9
:103720004FEA17274FEA066647EA0567A6F1DE4625
:10373000B6F1805F4FEA15251FD9384624F0010CF9
:1037400005EBC471BCF1FE6F01EB0C1102D8F0BCAB
:10375000BDE8008124425CBF01F5801E9EEAC47F63
:1037600002D4F0BCBDE80081244238D4F0BCA1F101
:10377000C041BDE8004100F016B94FEAD22242EA4A
:1037800043524FEAD323A7FB02864FEAD02040EAF8
:10379000415007FB03661EEA0E0F4FEAD12105FBDD
:1037A000026658BFA6EB0056B6EB00564FEA520E23
:1037B0004EEAC37E18EB0E0E56EB530EBDD518EB3A
:1037C00002085E417F1C55F10005B6E74FF48015F5
:1037D0004FF000074FF000064FF00008ADE7F0BCD7
:1037E0004FF0000001F1C04101F00041BDE800814F
:1037F00011EA0C1F0CEA131500D00CE013EA0C1FA1
:1038000000F025804FF00000F0BC81EA030101F0D8
:103810000041BDE80081F0BCBDE8004181EA030140
:1038200000F0C1B8F0BCBDE8004170B500F06DF823
:10383000097EFC3E00F007B881EA03014FF000006A
:1038400001F00041704781EA030100F0ACB8F0BC20
:10385000BDE800414FF0000021497047FFFDFBF932
:10386000F7F5F4F2F0EEEDEBE9E8E6E4E3E1E0DEB3
:10387000DDDBDAD8D7D5D4D3D1D0CFCDCCCBCAC825
:10388000C7C6C5C4C2C1C0BFBEBDBCBBBAB9B8B74C
:10389000B6B5B4B3B2B1B0AFAEADACABAAA9A8A83F
:1038A000A7A6A5A4A3A3A2A1A09F9F9E9D9C9C9B0D
:1038B0009A999998979796959594939392919190B8
:1038C0008F8F8E8E8D8C8C8B8B8A89898888878749
:1038D0008685858484838382828181800000FF07BE
:1038E0000000F87FB0FA80F310FA03F10AD0C3F1B8
:1038F0001D0303F580634FEA41504FEA035202EB88
:10390000D12170474FF0000070470EF1020E2EF0EB
:10391000030E5EF8046B364205D4012A43EB03051F
:1039200015F5001F12D8012841EB010C1CF5001FF2
:103930000CD80ED14FEAD17C15F5001F0CEB4C0CC6
:103940000CF1020C08BF4CEBD37C04E04FF0080CE8
:1039500001E04FEAD37C0CEB4C0526FA05F606F0A5
:103960000706B6F1040C06D20EEB860CBDE87040DB
:103970004CF0010C6047DFE80CF0090B02024FF03D
:1039800000414FF00000A1F5002170BD194610461E
:10399000012851EB010418BFD4F5001484BF0020A6
:1039A00001F0004170BD0808A0F500114FEA310197
:1039B0007047000043004FEAD30C4FEA3C0C4340F1
:1039C0001FBF40070CF1605113F0FE4F70471CF011
:1039D000006F03D100200CF0004170470CF0004351
:1039E00043EA507010B540EACC0000F084F800BF04
:1039F000000000924FEA0001FFF7D5BF4FF00041F1
:103A00004FF00000A1F500217047000090EA010F7F
:103A100048BF81F0004100F1C080421A3CBF801ACB
:103A200089184FEAD0524FF07F4C1CEA410FA2EBAD
:103A3000D15318BF9CEA026F00F03B804FF0004C5E
:103A40004CEA00204CEA012121FA03FC10EB0C0C9B
:103A50001ED202F1FF325FEA1C2040EBC25038BF99
:103A600070471CF07F0F4FEA400C18BFBCF17F4F2E
:103A700038BF7047C3F12003994008BF20F0010010
:103A8000BCF17F4F38BF7047A0F1C04000F079B85B
:103A90004FEA3C00000A40EBC25028BF1CF0FF0F69
:103AA0004FEA400CE6D018BFBCF17F4F38BF7047DB
:103AB000EAE79CEA026F05D010EA5C0F08BF00F04D
:103AC0000040704710B500F016F800BF64FBBE3E22
:103AD000B0FA80F310FA03F2C3F19D030AD0D905BE
:103AE00001EB1220530638BF704700F1010008BFF8
:103AF00020F0010070470EF1020E2EF0030E5EF86A
:103B0000044B244204D44FEA4102B2F17F4F11D852
:103B10004FEA4003B3F17F4F0CD80ED14FEAD07C6F
:103B2000B2F17F4F0CEB4C0C0CF1020C08BF4CEBCC
:103B3000D17C04E04FF0080C01E04FEAD17C0CEBA3
:103B40004C0324FA03F404F00704B4F1040C06D285
:103B50000EEB840CBDE810404CF0010C6047DFE830
:103B60000CF0070802024FF00040A0F5800010BDE5
:103B70000846420018BFD2F1807288BF00F00040B2
:103B800010BDFF2141EAD050C005704790EA010FF7
:103B900048BF81F000413FF540AF421A04D882F09F
:103BA0000042A0EB020011444FEAD0524FF07F4C8C
:103BB0001CEA410FA2EBD15318BF9CEA026F4AD016
:103BC0004FF0004C4CEA00204CEA012121FA03FCA2
:103BD000B0EB0C0C0FD412F0FE0F36D05FEA4C00A5
:103BE0001DD5001240EBC25038BF70471CF03F0F8C
:103BF00018BF70470BE0A2F101025FEA1C2040EB06
:103C0000C25038BF70471CF07F0F18BF7047C3F118
:103C10002003994014BF401E20F001007047800827
:103C20004FEA122308BF7047B0FA80FCA2EB0C02E7
:103C3000CCF1280C60FA0CF093EA122F04BF00EBD1
:103C4000C25070474FEAC3707047130A5FEADC1036
:103C500008BF7047F6E79CEA026F04D010EA5C0FD9
:103C600008BF0020704710B5FFF745FF40DFF63E64
:103C700081F000407047FCF777BC000000000000B6
:103C80000000000000000000000000000000001024
:103C900000100010001000100010000000100000C4
:103CA000000000280028002800000000000000009C
:103CB00000000000000000240024007C00240048D4
:103CC000007C00480048000000000038005400500C
:103CD0000038001400540054003800100000002088
:103CE0000054005800300028005400140008000060
:103CF0000000001000280028001000340048004890
:103D0000003400000000001000100010000000004F
:103D1000000000000000000000000008001000206B
:103D200000200020002000200020001000080020BB
:103D30000010000800080008000800080008001033
:103D400000200010003800100028000000000000D3
:103D50000000000000000000000000100010007CC7
:103D60000010001000000000000000000000000033
:103D70000000000000000000001000100010000013
:103D800000000000000000000038000000000000FB
:103D90000000000000000000000000000000000023
:103DA00000100000000000080008001000100010C3
:103DB00000100020002000000000003800440044F3
:103DC000005400440044004400380000000000108B
:103DD0000030005000100010001000100010000013
:103DE00000000038004400440004000800100020D7
:103DF000007C0000000000380044000400180004AB
:103E000000040044003800000000000800180028EA
:103E100000280048007C0008000800000000007C2A
:103E20000040004000780004000400440038000016
:103E30000000003800440040007800440044004482
:103E4000003800000000007C000400080010001092
:103E50000020002000200000000000380044004442
:103E600000380044004400440038000000000038DE
:103E7000004400440044003C0004004400380000BA
:103E80000000000000000010000000000000000022
:103E90000010000000000000000000000010000002
:103EA0000000000000100010001000000000000CD6
:103EB000003000400030000C000000000000000056
:103EC00000000000007C0000007C000000000000FA
:103ED00000000000000000600018000400180060EE
:103EE000000000000000003800440004000800103A
:103EF0000010000000100000000000380044004CDA
:103F00000054005C00400040003800000000001039
:103F10000028002800280028007C004400440000FD
:103F2000000000780044004400780044004400444D
:103F300000780000000000380044004000400040CD
:103F400000400044003800000000007000480044B9
:103F50000044004400440048007000000000007C61
:103F600000400040007C004000400040007C000019
:103F70000000007C0040004000780040004000400D
:103F80000040000000000038004400400040005C99
:103F90000044004400380000000000440044004495
:103FA000007C00440044004400440000000000384D
:103FB0000010001000100010001000100038000069
:103FC0000000000400040004000400040004004495
:103FD000003800000000004400480050006000501D
:103FE000004800480044000000000040004000403D
:103FF0000040004000400040007C00000000004401
:10400000006C006C00540044004400440044000074
:10401000000000440064006400540054004C004C54
:104020000044000000000038004400440044004404
:1040300000440044003800000000007800440044C0
:1040400000440078004000400040000000000038BC
:10405000004400440044004400440054003800047C
:104060000000007800440044004400780048004804
:104070000044000000000038004400400030000808
:1040800000040044003800000000007C0010001014
:10409000001000100010001000100000000000448C
:1040A0000044004400440044004400440038000040
:1040B00000000044004400440028002800280010AC
:1040C000001000000000004400440054005400545C
:1040D000006C002800280000000000440028002890
:1040E00000100010002800280044000000000044D8
:1040F00000440028002800100010001000100000EC
:104100000000007C000400080010001000200040A7
:10411000007C0000000000180010001000100010CB
:1041200000100010001000100018002000200010E7
:10413000001000100010000800080000000000300F
:1041400000100010001000100010001000100010EF
:10415000003000100028002800440000000000008B
:10416000000000000000000000000000000000004F
:10417000000000000000000000FE00200010000011
:10418000000000000000000000000000000000002F
:10419000000000380044003C0044004C00340000A3
:1041A00000000040004000580064004400440064E7
:1041B00000580000000000000000003800440040EB
:1041C00000400044003800000000000400040034F7
:1041D000004C00440044004C00340000000000008B
:1041E000000000380044007C00400044003800001B
:1041F0000000000C0010007C0010001000100010E7
:10420000001000000000000000000034004C0044DA
:104210000044004C00340004007800400040005886
:10422000006400440044004400440000000000100A
:1042300000000070001000100010001000100000BE
:1042400000000010000000700010001000100010AE
:104250000010001000E000400040004800500060E6
:1042600000500048004400000000007000100010E2
:1042700000100010001000100010000000000000EE
:104280000000007800540054005400540054000012
:104290000000000000000058006400440044004496
:1042A000004400000000000000000038004400440A
:1042B00000440044003800000000000000000058E6
:1042C00000640044004400640058004000400000C6
:1042D00000000034004C00440044004C0034000452
:1042E000000400000000005800640040004000404E
:1042F00000400000000000000000003800440030D2
:104300000008004400380000000000200020007871
:104310000020002000200020001800000000000005
:1043200000000044004400440044004C00340000FD
:10433000000000000000004400440028002800287D
:104340000010000000000000000000540054005461
:10435000006C00280028000000000000000000445D
:104360000028001000100028004400000000000099
:104370000000004400440028002800100010001035
:10438000006000000000007C0008001000200040D9
:10439000007C000000000018001000100010002039
:1043A0000020001000100010001800100010001075
:1043B000001000100010001000100010001000305D
:1043C000001000100010000800080010001000107D
:1043D00000300000000000000074004C00000000ED
:1043E000000000000000FFFFFFFFFFFFFFE007FFEE
:1043F000FFFFFFFFFFFFFFFFFFFFFFFFFC3FF87F17
:10440000FFFFFFFFFFFFFFFFFFFFFFFFF1FFFF0FBA
:10441000FFFFFFFFFFFFFFFFFFFFFFFFCFFFFFE3F8
:10442000FFFFFFFFFFFFFFFFFFFFFFFF3FFFFFF962
:10443000FFFFFFFFFFFFFFFFFFFFFFFE7C0FFFFE01
:10444000FFFFFFFFFFFFFFFFFFFFFFFDF9E7FFFF9C
:104450003FFFFFFFFFFFFFFFFFFFFFF80198000096
:104460003FFFFFFFFFFFFFFFFFFFFFF6F90FFFFE1C
:104470005FFFFFFFFFFFFFFFFFFFFFE6D9FE37FEF5
:104480004FFFFFFFFFFFFFFFFFFFFFEC899FFFFED6
:104490006FFFFFFFFFFFFFFFFFFFFFEC890C000036
:1044A00067FFFFFFFFFFFFFFFFFFFFDC81FC000056
:1044B00077FFFFFFFFFFFFFFFFFFFFDC819C08008E
:1044C00077FFFFFFFFFFFFFFFFFFFFDC819DBB3694
:1044D00077FFFFFFFFFFFFFFFFFFFFDE81FFBBF660
:1044E00077FFFFFFFFFFFFFFFFFFFFDE81FFBFF64C
:1044F00077FFFFFFFFFFFFFFFFFFFFC0811FFFFEF2
:1045000007FFFFFFFFFFFFFFFFFFFFE0C99FFFFF68
:1045100007FFFFFFFFFFFFFFFFFFFFE0000C0000B2
:104520000FFFFFFFFFFFFFFFFFFFFFF00004000092
:104530000FFFFFFFFFFFFFFFFFFFFFF00000000086
:104540001FFFFFFFFFFFFFFFFFFFFFF8000000005E
:104550003FFFFFFFFFFFFFFFFFFFFFFC000000002A
:104560007FFFFFFFFFFFFFFFFFFFFFFF00000000D7
:10457000FFFFFFFFFFFFFFFFFFFFFFFF80000003C4
:10458000FFFFFFFFFFFFFFFFFFFFFFFFE000000F48
:10459000FFFFFFFFFFFFFFFFFFFFFFFFF800003FF0
:1045A000FFFFFFFFFFFFFFFFFFFFFFFFFF0001FF18
:1045B000FFFFFFFFFFFFFFFFFFFFFFFFFFFFFFFF0B
:1045C000FFFFFFFFFFFFFFFFFFFFFFFFFFFFFFFFFB
:1045D000FFFFFFFFFFFFFFFFFFFFFFFFFFFFFFFFEB
:1045E000FFFFFFFFFFFFFFFFFFFFFFFFFFFFFFFFDB
:1047E000FFFFFFFFFFFF01020203040506070809A0
:1047F0000A0B0C0D0E0F101000000000000000004E
:104800000102030406070809000000000102030476
:1048100002400000000000A0000000000540000071
:10482000000000C8000000000C4000000000409C98
:1048300000000000194000000020BCBE0000000085
:1048400034400000BFC91B8E00000004B5400000CA
:10485000504BCFD06607E2CF010000006C41000052
:104860003E8251AADFEEA73401000000D9420000C9
:10487000DCB5A0E23A301F97FFFFFFFFB445000010
:10488000FD25A0C8E9A3C14FFFFFFFFFFF3F0000C8
:104890000000008000000000FF3F000000000080DA
:1048A00000000000E0480008000000203000000088
:1048B000280100081049000830000020580B0000B3
:1048C000440100081C00000043000000F8FFFFFF47
:1048D0000C0000000E0000000F0000002E00000081
:1048E000070A00007A3C00080000000000000000F9
:1048F00000000000000000000000000000000000B8
:1049000001000000100000000000000000127A000A
:04000005080000ED02
:00000001FF
